:100000000C9472000C9493000C9493000C94930045
:100010000C9493000C94140C0C94E90B0C94930026
:100020000C9493000C9493000C9493000C94930004
:100030000C9493000C9493000C9493000C949300F4
:100040000C9493000C9493000C9493000C949300E4
:100050000C9493000C9493000C9493000C949300D4
:100060000C9493000C94680A0C9493000C949300E5
:100070000C9493000C9493000C9493000C949300B4
:100080000C9493000C9493000C9493000C949300A4
:100090000C9493000C9493000C9493000C94930094
:1000A0000C9493000C9493000C9493000C94930084
:1000B0000C9493000C9493000C9493000C94930074
:1000C0000C9493000C9493000C9493000C94930064
:1000D0000C9493000C9493000C9493000C94930054
:1000E0000C94930011241FBECFEFD1E2DEBFCDBF31
:1000F00000E00CBF14E0A0E0B2E0E2E0FDE600E0CA
:100100000BBF02C007900D92A837B107D9F714E0D2
:10011000A8E7B4E001C01D92A33BB107E1F70E943C
:10012000312F0C947F360C9400000F931F93DF93B4
:10013000CF93CDB7DEB7C057D0400FB6F894DEBF2F
:100140000FBECDBFFE01E359FF4F80E090E0A0E875
:10015000BFE380839183A283B3838E0107591F4F2E
:10016000FE01E359FF4F608171818281938126E610
:1001700036E646E655E40E941631DC01CB01F80173
:1001800080839183A283B383FE01E759FF4F60818F
:1001900071818281938120E030E040E85FE30E943A
:1001A0001C33882344F4FE01E959FF4F81E090E0BD
:1001B0009183808364C0FE01E759FF4F60817181A4
:1001C0008281938120E03FEF4FE757E40E94BC32E9
:1001D00018160CF043C0FE01E359FF4F6081718196
:1001E0008281938120E030E040E251E40E941631A8
:1001F000DC01CB018E0109591F4FBC01CD010E94CA
:10020000402FDC01CB01F801918380831FC0FE01E8
:10021000EB59FF4F80E791E091838083FE01EB591A
:10022000FF4F808191810197F1F7FE01EB59FF4F5C
:1002300091838083DE01A959BF4FFE01E959FF4F29
:1002400080819181019711969C938E93FE01E959CB
:10025000FF4F808191810097D1F627C08E01095907
:100260001F4FFE01E759FF4F6081718182819381A9
:100270000E94402FDC01CB01F80191838083DE01D5
:10028000AD59BF4FFE01E959FF4F808191818D9398
:100290009C93FE01ED59FF4F808191810197F1F709
:1002A000FE01ED59FF4F91838083A8E2B0E0E8E2C0
:1002B000F0E080818E7F8C93A8E2B0E0E8E2F0E08D
:1002C00080818D7F8C93E8E2F0E080E38083A8E278
:1002D000B0E0E8E2F0E0808184608C93FE01E15AB6
:1002E000FF4F80E090E0A0EAB0E480839183A28396
:1002F000B3838E01055A1F4FFE01E15AFF4F608103
:1003000071818281938126E636E646E655E40E94B5
:100310001631DC01CB01F80180839183A283B38382
:10032000FE01E55AFF4F608171818281938120E057
:1003300030E040E85FE30E941C33882344F4FE0170
:10034000E75AFF4F81E090E09183808364C0FE0113
:10035000E55AFF4F608171818281938120E03FEFF8
:100360004FE757E40E94BC3218160CF043C0FE0160
:10037000E15AFF4F608171818281938120E030E0FA
:1003800040E251E40E941631DC01CB018E01075A94
:100390001F4FBC01CD010E94402FDC01CB01F801B1
:1003A000918380831FC0FE01E95AFF4F80E791E0EF
:1003B00091838083FE01E95AFF4F808191810197EB
:1003C000F1F7FE01E95AFF4F91838083DE01A75ABE
:1003D000BF4FFE01E75AFF4F80819181019711962F
:1003E0009C938E93FE01E75AFF4F80819181009785
:1003F000D1F627C08E01075A1F4FFE01E55AFF4F65
:1004000060817181828193810E94402FDC01CB0148
:10041000F80191838083DE01AB5ABF4FFE01E75A9A
:10042000FF4F808191818D939C93FE01EB5AFF4F8A
:10043000808191810197F1F7FE01EB5AFF4F918383
:100440008083A8E2B0E0E8E2F0E080818B7F8C93CB
:10045000FE01EF5AFF4F80E090E0A0E8BFE3808309
:100460009183A283B3838E01035B1F4FFE01EF5A7A
:10047000FF4F608171818281938126E636E646E6F0
:1004800055E40E941631DC01CB01F8018083918391
:10049000A283B383FE01E35BFF4F608171818281A0
:1004A000938120E030E040E85FE30E941C33882322
:1004B00044F4FE01E55BFF4F81E090E0918380838F
:1004C00064C0FE01E35BFF4F608171818281938193
:1004D00020E03FEF4FE757E40E94BC3218160CF0C3
:1004E00043C0FE01EF5AFF4F608171818281938189
:1004F00020E030E040E251E40E941631DC01CB0103
:100500008E01055B1F4FBC01CD010E94402FDC0115
:10051000CB01F801918380831FC0FE01E75BFF4F91
:1005200080E791E091838083FE01E75BFF4F80814C
:1005300091810197F1F7FE01E75BFF4F9183808383
:10054000DE01A55BBF4FFE01E55BFF4F808191811E
:10055000019711969C938E93FE01E55BFF4F80817E
:1005600091810097D1F627C08E01055B1F4FFE01D8
:10057000E35BFF4F60817181828193810E94402FF4
:10058000DC01CB01F80191838083DE01A95BBF4FC1
:10059000FE01E55BFF4F808191818D939C93FE016D
:1005A000E95BFF4F808191810197F1F7FE01E95BE3
:1005B000FF4F91838083A8E2B0E0E8E2F0E0808121
:1005C0008E7F8C93A8E2B0E0E8E2F0E080818D7F3E
:1005D0008C93E8E2F0E080E38083A8E2B0E0E8E218
:1005E000F0E0808184608C93FE01ED5BFF4F80E042
:1005F00090E0A0EAB0E480839183A283B3838E016C
:10060000015C1F4FFE01ED5BFF4F608171818281B4
:10061000938126E636E646E655E40E941631DC0173
:10062000CB01F80180839183A283B383FE01FF96FF
:10063000608171818281938120E030E040E85FE356
:100640000E941C3388232CF481E090E09EAF8DAF94
:1006500046C0FE01FF96608171818281938120E016
:100660003FEF4FE757E40E94BC32181664F5FE01D5
:10067000ED5BFF4F608171818281938120E030E0EA
:1006800040E251E40E941631DC01CB01BC01CD01F6
:100690000E94402FDC01CB019EAF8DAF0FC080E7E1
:1006A00091E09CAF8BAF8BAD9CAD0197F1F79CAF08
:1006B0008BAF8DAD9EAD01979EAF8DAF8DAD9EADD5
:1006C000009769F716C0FE01FF96608171818281F3
:1006D00093810E94402FDC01CB019EAF8DAF8DAD89
:1006E0009EAD9AAF89AF89AD9AAD0197F1F79AAFF8
:1006F00089AFA8E2B0E0E8E2F0E080818B7F8C93E4
:1007000080E090E0A0E8BFE38DAB9EABAFABB8AFAD
:100710006DA97EA98FA998AD26E636E646E655E492
:100720000E941631DC01CB0189AB9AABABABBCAB01
:1007300069A97AA98BA99CA920E030E040E85FE391
:100740000E941C3388232CF481E090E098AB8FA7A3
:100750003FC069A97AA98BA99CA920E03FEF4FE788
:1007600057E40E94BC3218164CF56DA97EA98FA9DA
:1007700098AD20E030E040E251E40E941631DC0107
:10078000CB01BC01CD010E94402FDC01CB0198AB15
:100790008FA70FC080E791E09EA78DA78DA59EA58E
:1007A0000197F1F79EA78DA78FA598A9019798AB00
:1007B0008FA78FA598A9009769F714C069A97AA98E
:1007C0008BA99CA90E94402FDC01CB0198AB8FA77D
:1007D0008FA598A99CA78BA78BA59CA50197F1F73E
:1007E0009CA78BA7A8E2B0E0E8E2F0E080818E7FD2
:1007F0008C93A8E2B0E0E8E2F0E080818D7F8C93FA
:10080000E8E2F0E080E38083A8E2B0E0E8E2F0E034
:10081000808184608C9380E090E0A0EAB0E48FA3B4
:1008200098A7A9A7BAA76FA178A589A59AA526E632
:1008300036E646E655E40E941631DC01CB018BA377
:100840009CA3ADA3BEA36BA17CA18DA19EA120E022
:1008500030E040E85FE30E941C3388232CF481E001
:1008600090E09AA389A33FC06BA17CA18DA19EA11A
:1008700020E03FEF4FE757E40E94BC3218164CF5DA
:100880006FA178A589A59AA520E030E040E251E467
:100890000E941631DC01CB01BC01CD010E94402F2A
:1008A000DC01CB019AA389A30FC080E791E098A354
:1008B0008F8F8F8D98A10197F1F798A38F8F89A1C2
:1008C0009AA101979AA389A389A19AA1009769F790
:1008D00014C06BA17CA18DA19EA10E94402FDC01C0
:1008E000CB019AA389A389A19AA19E8F8D8F8D8D0B
:1008F0009E8D0197F1F79E8F8D8FA8E2B0E0E8E220
:10090000F0E080818B7F8C9380E090E0A0E8BFE3F3
:10091000898F9A8FAB8FBC8F698D7A8D8B8D9C8DD3
:1009200026E636E646E655E40E941631DC01CB01A8
:100930008D8B9E8BAF8BB88F6D897E898F89988DBB
:1009400020E030E040E85FE30E941C3388232CF471
:1009500081E090E09C8B8B8B3FC06D897E898F8975
:10096000988D20E03FEF4FE757E40E94BC32181605
:100970004CF5698D7A8D8B8D9C8D20E030E040E2C6
:1009800051E40E941631DC01CB01BC01CD010E9473
:10099000402FDC01CB019C8B8B8B0FC080E791E05B
:1009A0009A8B898B89899A890197F1F79A8B898B20
:1009B0008B899C8901979C8B8B8B8B899C89009759
:1009C00069F714C06D897E898F89988D0E94402FA8
:1009D000DC01CB019C8B8B8B8B899C89988B8F87BF
:1009E0008F8598890197F1F7988B8F87A8E2B0E0FF
:1009F000E8E2F0E080818E7F8C93A8E2B0E0E8E24C
:100A0000F0E080818D7F8C93E8E2F0E080E28083EB
:100A1000A8E2B0E0E8E2F0E0808184608C9380E0BE
:100A200090E0A0EAB0E48B879C87AD87BE876B859A
:100A30007C858D859E8526E636E646E655E40E9451
:100A40001631DC01CB018F839887A987BA876F8124
:100A5000788589859A8520E030E040E85FE30E9450
:100A60001C3388232CF481E090E09E838D833FC06B
:100A70006F81788589859A8520E03FEF4FE757E4BD
:100A80000E94BC3218164CF56B857C858D859E8541
:100A900020E030E040E251E40E941631DC01CB015D
:100AA000BC01CD010E94402FDC01CB019E838D83D0
:100AB0000FC080E791E09C838B838B819C810197A1
:100AC000F1F79C838B838D819E8101979E838D831B
:100AD0008D819E81009769F714C06F817885898523
:100AE0009A850E94402FDC01CB019E838D838D81EE
:100AF0009E819A83898389819A810197F1F79A83EC
:100B00008983A8E2B0E0E8E2F0E080818B7F8C93FB
:100B1000C059DF4F0FB6F894DEBF0FBECDBFCF91E7
:100B2000DF911F910F910895DF93CF93CDB7DEB77B
:100B30002E970FB6F894DEBF0FBECDBF80E090E0D9
:100B4000A0E8BFE38B879C87AD87BE876B857C85DC
:100B50008D859E8526E636E646E655E40E941631EA
:100B6000DC01CB018F839887A987BA876F8178854D
:100B700089859A8520E030E040E85FE30E941C33DD
:100B800088232CF481E090E09E838D833FC06F81A9
:100B9000788589859A8520E03FEF4FE757E40E94EA
:100BA000BC3218164CF56B857C858D859E8520E0C2
:100BB00030E040E251E40E941631DC01CB01BC017F
:100BC000CD010E94402FDC01CB019E838D830FC09D
:100BD00080E791E09C838B838B819C810197F1F767
:100BE0009C838B838D819E8101979E838D838D81D4
:100BF0009E81009769F714C06F81788589859A85F1
:100C00000E94402FDC01CB019E838D838D819E81CC
:100C10009A83898389819A810197F1F79A838983DD
:100C200088E20E94280681E00E94280686E00E9451
:100C300028068EE00E94280680E80E9428062E964C
:100C40000FB6F894DEBF0FBECDBFCF91DF910895F0
:100C5000DF93CF93CDB7DEB76E970FB6F894DEBFB4
:100C60000FBECDBF8E8F8E8D8D8F8D8D807F8D8FA2
:100C7000A8E2B0E0E8E2F0E080818F708C93A8E217
:100C8000B0E0E8E2F0E090818D8D892B8C93A8E2B2
:100C9000B0E0E8E2F0E080818E7F8C93A8E2B0E0E3
:100CA000E8E2F0E080818D7F8C93A8E2B0E0E8E29A
:100CB000F0E0808184608C9380E090E0A0EAB0E472
:100CC000898F9A8FAB8FBC8F698D7A8D8B8D9C8D20
:100CD00026E636E646E655E40E941631DC01CB01F5
:100CE0008D8B9E8BAF8BB88F6D897E898F89988D08
:100CF00020E030E040E85FE30E941C3388232CF4BE
:100D000081E090E09C8B8B8B3FC06D897E898F89C1
:100D1000988D20E03FEF4FE757E40E94BC32181651
:100D20004CF5698D7A8D8B8D9C8D20E030E040E212
:100D300051E40E941631DC01CB01BC01CD010E94BF
:100D4000402FDC01CB019C8B8B8B0FC080E791E0A7
:100D50009A8B898B89899A890197F1F79A8B898B6C
:100D60008B899C8901979C8B8B8B8B899C890097A5
:100D700069F714C06D897E898F89988D0E94402FF4
:100D8000DC01CB019C8B8B8B8B899C89988B8F870B
:100D90008F8598890197F1F7988B8F87A8E2B0E04B
:100DA000E8E2F0E080818B7F8C938E8D8F708E8F48
:100DB0008E8D8295807F8E8FA8E2B0E0E8E2F0E031
:100DC00080818F708C93A8E2B0E0E8E2F0E090813F
:100DD0008E8D892B8C93A8E2B0E0E8E2F0E0808170
:100DE0008E7F8C93A8E2B0E0E8E2F0E080818D7F16
:100DF0008C93A8E2B0E0E8E2F0E0808184608C931C
:100E000080E090E0A0EAB0E48B879C87AD87BE8746
:100E10006B857C858D859E8526E636E646E655E41F
:100E20000E941631DC01CB018F839887A987BA878E
:100E30006F81788589859A8520E030E040E85FE31E
:100E40000E941C3388232CF481E090E09E838D83E4
:100E50003FC06F81788589859A8520E03FEF4FE715
:100E600057E40E94BC3218164CF56B857C858D8545
:100E70009E8520E030E040E251E40E941631DC0122
:100E8000CB01BC01CD010E94402FDC01CB019E8330
:100E90008D830FC080E791E09C838B838B819C8145
:100EA0000197F1F79C838B838D819E8101979E83AF
:100EB0008D838D819E81009769F714C06F8178853D
:100EC00089859A850E94402FDC01CB019E838D830A
:100ED0008D819E819A83898389819A810197F1F717
:100EE0009A838983A8E2B0E0E8E2F0E080818B7F1A
:100EF0008C936E960FB6F894DEBF0FBECDBFCF9128
:100F0000DF910895DF93CF93CDB7DEB76E970FB61D
:100F1000F894DEBF0FBECDBF8E8F8E8D8D8F8D8DE1
:100F2000807F8D8FA8E2B0E0E8E2F0E080818F70F2
:100F30008C93A8E2B0E0E8E2F0E090818D8D892BFF
:100F40008C93A8E2B0E0E8E2F0E0808181608C93CD
:100F5000A8E2B0E0E8E2F0E080818D7F8C93A8E227
:100F6000B0E0E8E2F0E0808184608C9380E090E083
:100F7000A0EAB0E4898F9A8FAB8FBC8F698D7A8D90
:100F80008B8D9C8D26E636E646E655E40E941631AA
:100F9000DC01CB018D8B9E8BAF8BB88F6D897E89E9
:100FA0008F89988D20E030E040E85FE30E941C3399
:100FB00088232CF481E090E09C8B8B8B3FC06D8963
:100FC0007E898F89988D20E03FEF4FE757E40E949C
:100FD000BC3218164CF5698D7A8D8B8D9C8D20E076
:100FE00030E040E251E40E941631DC01CB01BC014B
:100FF000CD010E94402FDC01CB019C8B8B8B0FC05D
:1010000080E791E09A8B898B89899A890197F1F71A
:101010009A8B898B8B899C8901979C8B8B8B8B8975
:101020009C89009769F714C06D897E898F89988D96
:101030000E94402FDC01CB019C8B8B8B8B899C8980
:10104000988B8F878F8598890197F1F7988B8F8779
:10105000A8E2B0E0E8E2F0E080818B7F8C938E8D97
:101060008F708E8F8E8D8295807F8E8FA8E2B0E0FC
:10107000E8E2F0E080818F708C93A8E2B0E0E8E2D3
:10108000F0E090818E8D892B8C93A8E2B0E0E8E2AD
:10109000F0E0808181608C93A8E2B0E0E8E2F0E0CB
:1010A00080818D7F8C93A8E2B0E0E8E2F0E080815F
:1010B00084608C9380E090E0A0EAB0E48B879C870A
:1010C000AD87BE876B857C858D859E8526E636E659
:1010D00046E655E40E941631DC01CB018F839887E8
:1010E000A987BA876F81788589859A8520E030E065
:1010F00040E85FE30E941C3388232CF481E090E0F9
:101100009E838D833FC06F81788589859A8520E095
:101110003FEF4FE757E40E94BC3218164CF56B8541
:101120007C858D859E8520E030E040E251E40E9480
:101130001631DC01CB01BC01CD010E94402FDC0146
:10114000CB019E838D830FC080E791E09C838B83CE
:101150008B819C810197F1F79C838B838D819E818C
:1011600001979E838D838D819E81009769F714C0BE
:101170006F81788589859A850E94402FDC01CB019B
:101180009E838D838D819E819A83898389819A81B3
:101190000197F1F79A838983A8E2B0E0E8E2F0E0F2
:1011A00080818B7F8C936E960FB6F894DEBF0FBE56
:1011B000CDBFCF91DF910895DF93CF93CDB7DEB749
:1011C00080E80E942806CF91DF910895DF93CF93A6
:1011D0000F920F92CDB7DEB79A8389830AC0E98157
:1011E000FA8180810E94820789819A8101969A837F
:1011F0008983E981FA818081882389F70F900F9094
:10120000CF91DF910895DF93CF9300D00F92CDB7A8
:10121000DEB789836A838981282F30E03C832B8362
:101220008B819C8182309105D9F02B813C812330C8
:10123000310534F48B819C818130910561F01EC0B1
:101240002B813C812330310581F08B819C8184305E
:10125000910581F013C08A8181580E9428060EC032
:101260008A8181540E94280609C08A818D560E9475
:10127000280604C08A818D520E9428060F900F9084
:101280000F900F90CF91DF910895DF93CF93CDB75B
:10129000DEB727970FB6F894DEBF0FBECDBF8A83A7
:1012A0006B835D834C833F832E8319828A818823DD
:1012B00019F08B81882319F40E94DC0804C08A810C
:1012C0006B810E9403098E819F818530910519F001
:1012D00089818130A9F48C819D8120E137E2B901B7
:1012E0000E943436CB01C09690938B0480938A047D
:1012F00080918A0490918B040E94820781E0898307
:101300008E819F818430910519F08981813011F59A
:101310008C819D8128EE33E0B9010E943436CB01E7
:1013200090938D0480938C0480918C0490918D0413
:101330002AE030E0B9010E943436C0969093B2049E
:101340008093B1048091B1049091B2040E9482070D
:1013500081E089838E819F818330910519F0898195
:10136000813011F58C819D8124E630E0B9010E9425
:101370003436CB0190938D0480938C0480918C043F
:1013800090918D042AE030E0B9010E943436C09675
:101390009093AE048093AD048091AD049091AE041F
:1013A0000E94820781E089838E819F81823091052E
:1013B00019F08981813011F58C819D812AE030E01E
:1013C000B9010E943436CB0190938D0480938C0434
:1013D00080918C0490918D042AE030E0B9010E9444
:1013E0003436C0969093900480938F0480918F043C
:1013F000909190040E94820781E089838E819F8171
:101400008130910519F08981813091F48C819D8121
:101410002AE030E0B9010E943436C0969093B004BF
:101420008093AF048091AF049091B0040E94820732
:101430008E819F81863091051CF085E40E94820791
:1014400027960FB6F894DEBF0FBECDBFCF91DF91C8
:101450000895DF93CF93CDB7DEB7E1ECF0E01082D3
:10146000E0ECF0E01082E2ECF0E086E08083E4EC77
:10147000F0E087E48083E5ECF0E01082E1ECF0E05E
:1014800088E98083CF91DF910895DF93CF9300D0D7
:101490000F92CDB7DEB789E994E00E940E369C83A7
:1014A0008B838B819C818130910539F48EE994E0A6
:1014B0000E940E360E94811B04C0E6ECF0E086E23A
:1014C00080830F900F900F900F90CF91DF91089530
:1014D0001F920F920FB60F9200905B000F92112493
:1014E0002F933F934F935F936F937F938F939F932C
:1014F000AF93BF93EF93FF93DF93CF93CDB7DEB757
:10150000F894E6ECF0E0808180939304809193045A
:101510008332C9F584E994E00E940E369C018091E3
:101520009104909192042817390721F580917A044B
:1015300090917B040097C9F0209178043091790450
:1015400040917A0450917B04C901880F991F880F3C
:10155000991F820F931F840F951FFC01EC56FB4FC0
:10156000108278940E94450AF894E6ECF0E08091AD
:1015700093048083109279041092780410927B0473
:1015800010927A0447C080919304843219F5209117
:1015900078043091790440917A0450917B04C90118
:1015A000880F991F880F991F820F931F840F951F13
:1015B000FC01EC56FB4F10828091780490917904E5
:1015C0000196909379048093780410927B04109292
:1015D0007A0420C0209178043091790440917A04F3
:1015E00050917B0460919304C901880F991F880F63
:1015F000991F820F931F840F951FFC01EC56FB4F20
:10160000608380917A0490917B04019690937B048F
:1016100080937A047894CF91DF91FF91EF91BF91FD
:10162000AF919F918F917F916F915F914F913F917A
:101630002F910F9000925B000F900FBE0F901F90A4
:101640001895DF93CF9300D000D0CDB7DEB7898354
:101650006A835C834B833E832D8382E061E00E943A
:101660000309ED81FE812B813C8189816A81A90179
:101670009F010E94450926960FB6F894DEBF0FBE63
:10168000CDBFCF91DF910895DF93CF930F920F924B
:10169000CDB7DEB79A83898381E061E00E940309B8
:1016A00089819A810E94E6080F900F90CF91DF9177
:1016B0000895DF93CF930F920F92CDB7DEB7898352
:1016C0006A83E8E2F1E089818083EAE2F1E08A81DD
:1016D00080830F900F90CF91DF910895DF93CF9388
:1016E000CDB7DEB7A1E2B0E0E1E2F0E080818F604B
:1016F0008C93A2E2B0E0E2E2F0E08081807F8C9304
:10170000AAE0B1E0EAE0F1E0808188618C93ABE08F
:10171000B1E0EBE0F1E0808188618C93CF91DF91C3
:101720000895DF93CF93CDB7DEB7ADE2B0E0EDE241
:10173000F0E080818F7E8C93AEE2B0E0EEE2F0E0EC
:10174000808180618C93CF91DF910895DF93CF9357
:10175000CDB7DEB7ADE2B0E0EDE2F0E080818F7DA5
:101760008C93AEE2B0E0EEE2F0E0808180628C9398
:10177000CF91DF910895DF93CF93CDB7DEB7F89483
:10178000AAE6B0E0EAE6F0E0808182608C93ADE307
:10179000B0E0EDE3F0E0808180618C937894CF91AC
:1017A000DF910895DF93CF93CDB7DEB7F894AAE623
:1017B000B0E0EAE6F0E0808188608C93ADE3B0E0D1
:1017C000EDE3F0E0808180628C937894CF91DF919B
:1017D00008951F920F920FB60F9211248F939F932B
:1017E000AF93BF93DF93CF93CDB7DEB780918404DF
:1017F00090918504A0918604B09187040196A11D63
:10180000B11D8093840490938504A0938604B093C3
:101810008704CF91DF91BF91AF919F918F910F90EE
:101820000FBE0F901F9018951F920F920FB60F9238
:1018300011248F939F93AF93BF93DF93CF93CDB733
:10184000DEB78091800490918104A0918204B091D0
:1018500083040196A11DB11D80938004909381049F
:10186000A0938204B0938304CF91DF91BF91AF9195
:101870009F918F910F900FBE0F901F901895DF933F
:10188000CF930F920F92CDB7DEB78A8319828A81E8
:101890008F708A83E2E2F0E0808189838981807F92
:1018A000898399818A81892B8983E2E2F0E08981A9
:1018B00080830F900F90CF91DF910895DF93CF93A6
:1018C000CDB7DEB786E00E943F0CCF91DF9108953F
:1018D000DF93CF93CDB7DEB789E00E943F0CCF9165
:1018E000DF910895DF93CF93CDB7DEB785E00E94F7
:1018F0003F0CCF91DF910895DF93CF93CDB7DEB743
:101900008AE00E943F0CCF91DF910895DF93CF933F
:10191000CDB7DEB784E00E943F0CCF91DF910895F0
:10192000DF93CF93CDB7DEB782E00E943F0CCF911B
:10193000DF910895DF93CF93CDB7DEB781E00E94AA
:101940003F0CCF91DF910895DF93CF93CDB7DEB7F2
:1019500088E00E943F0CCF91DF910895DF93CF93F1
:10196000CDB7DEB780E00E943F0CCF91DF910895A4
:10197000DF93CF93CDB7DEB72C970FB6F894DEBFC9
:101980000FBECDBF9A87898780E090E0A0E0B0E0ED
:101990008D839E83AF83B88719821A821B821C8233
:1019A00089859A85CC01A0E0B0E0BC01CD010E9400
:1019B000A033DC01CB01BC01CD0128E431EE42E8CB
:1019C00050E40E941032DC01CB018D839E83AF83F3
:1019D000B8876D817E818F8198850E94402FDC01C0
:1019E000CB01CC01A0E0B0E089839A83AB83BC83B8
:1019F0001092840410928504109286041092870439
:101A00001092800410928104109282041092830438
:101A1000209184043091850440918604509187047C
:101A20001C8689819A81AB81BC81281739074A07B6
:101A30005B0710F081E08C87209180043091810455
:101A400040918204509183041B8689819A81AB81E5
:101A5000BC81281739074A075B0710F091E09B8784
:101A60008C859B85892B882399F20E94AE0C2C963D
:101A70000FB6F894DEBF0FBECDBFCF91DF910895B2
:101A8000DF93CF93CDB7DEB72A970FB6F894DEBFBA
:101A90000FBECDBF9A87898780E090E0A0E0B0E0DC
:101AA0008D839E83AF83B88719821A821B821C8222
:101AB00089859A85CC01A0E0B0E0BC01CD010E94EF
:101AC000A033DC01CB01BC01CD0125EE30ED4AEAAB
:101AD00050E40E941032DC01CB018D839E83AF83E2
:101AE000B8876D817E818F8198850E94402FDC01AF
:101AF000CB0189839A83AB83BC83109284041092B8
:101B000085041092860410928704209184043091F9
:101B10008504409186045091870489819A81AB8124
:101B2000BC8182179307A407B50778F70E94AE0C13
:101B30002A960FB6F894DEBF0FBECDBFCF91DF91CE
:101B40000895DF93CF930F920F92CDB7DEB79A83AC
:101B500089830E945E0C89819A810E94400D0F90BA
:101B60000F90CF91DF910895DF93CF930F920F9253
:101B7000CDB7DEB79A8389830E94680C89819A81E8
:101B80000E94400D0F900F90CF91DF910895DF9349
:101B9000CF930F920F92CDB7DEB79A8389830E94BD
:101BA000720C89819A810E94B80C0F900F90CF918E
:101BB000DF910895DF93CF930F920F92CDB7DEB7E9
:101BC0009A8389830E947C0C89819A810E94B80C37
:101BD0000F900F90CF91DF910895DF93CF930F92E5
:101BE0000F92CDB7DEB79A8389830E94860C8981D4
:101BF0009A81880F991F9A83898389819A810E948B
:101C0000B80C0F900F90CF91DF910895DF93CF9391
:101C10000F920F92CDB7DEB79A8389830E94900C02
:101C200089819A81880F991F9A83898389819A81F2
:101C30000E94B80C0F900F90CF91DF910895DF9321
:101C4000CF930F920F92CDB7DEB79A8389830E940C
:101C50009A0C89819A81880F991F9A838983898137
:101C60009A810E94B80C0F900F90CF91DF91089548
:101C7000DF93CF930F920F92CDB7DEB79A8389830C
:101C80000E94A40C89819A81880F991F9A83898365
:101C900089819A810E94B80C0F900F90CF91DF91AB
:101CA0000895DF93CF93CDB7DEB7A4E2B0E0E4E2CE
:101CB000F0E0808180628C93A5E2B0E0E5E2F0E0A4
:101CC000808180628C93CF91DF910895DF93CF93D1
:101CD000CDB7DEB7E1E8F0E01082E5E8F0E08CEFA8
:101CE0008083E4E8F0E081E08083E9E8F0E083E0ED
:101CF0008083E8E8F0E08FEF8083E7E8F0E083E0BE
:101D00008083E6E8F0E08FEF8083E0E8F0E08BEAA4
:101D10008083E2E8F0E01082E1E8F0E08CE080838C
:101D2000CF91DF910895DF93CF93CDB7DEB7A7E2D0
:101D3000B0E0E7E2F0E08081876F8C93A8E2B0E04A
:101D4000E8E2F0E0808180788C93CF91DF91089574
:101D5000DF93CF93CDB7DEB7E0E3F0E01082E1E3AD
:101D6000F0E01082E7E0F1E01082E8E0F1E01082BC
:101D7000CF91DF910895DF93CF93CDB7DEB7EAE738
:101D8000F0E01082EBE7F0E01082ECE7F0E080E2B8
:101D90008083E0E5F0E080E88083EAE7F0E086E831
:101DA0008083CF91DF910895DF93CF930F920F92AD
:101DB000CDB7DEB78A838A81883020F0EBE7F0E088
:101DC00088E080838A8187708A83ECE7F0E08A81EB
:101DD00080628083AAE7B0E0EAE7F0E08081806477
:101DE0008C93EAE7F0E08081882F90E0807190701A
:101DF0000097B9F3E9E7F0E080818983AAE7B0E0D2
:101E0000EAE7F0E0808180618C93EBE7F0E01082FC
:101E100089810F900F90CF91DF910895DF93CF9339
:101E200000D0CDB7DEB789836A834B838B810E9454
:101E3000D40E80938E0480918E04282F30E0898107
:101E40006A81A90123E030E00E94210B0F900F90DE
:101E50000F90CF91DF910895DF93CF93CDB7DEB789
:101E60000E94510E0E946E0B0E94910B0E94A60BC5
:101E70000E94930E0E94A80ECF91DF910895DF93E8
:101E8000CF93CDB7DEB7E1E2F1E01082E5E2F1E019
:101E90008FEF8083E4E2F1E081E08083E9E2F1E02A
:101EA0001082E8E2F1E08FEF8083EBE2F1E0108254
:101EB000EAE2F1E08FEF8083EDE2F1E01082ECE204
:101EC000F1E08FEF8083E0E2F1E089EA8083E1E2F4
:101ED000F1E08BE08083CF91DF910895DF93CF9382
:101EE000CDB7DEB7F8940E942C0F0E94660E0E94B8
:101EF0003F0F0E94BB0B0E94D20B0E94BB0E789436
:101F0000CF91DF9108950F931F93DF93CF93CDB7B8
:101F1000DEB728970FB6F894DEBF0FBECDBF6D8336
:101F20007E838F83988780E090E0A0E0B0E0898393
:101F30009A83AB83BC836D817E818F8198852BE7EB
:101F400034E14EEE5FE30E941032DC01CB01BC01B4
:101F5000CD0120E030E04CE052E40E94E930DC01A9
:101F6000CB0189839A83AB83BC83E9E8F0E01082DC
:101F700008E810E069817A818B819C810E94402F62
:101F8000DC01CB01F801808328960FB6F894DEBF00
:101F90000FBECDBFCF91DF911F910F910895DF93B9
:101FA000CF93CDB7DEB781E061E00E94030980E006
:101FB00092E00E94440B82E061E00E94030980E00D
:101FC00092E00E94440BCF91DF9108950F931F93ED
:101FD000DF93CF93CDB7DEB7CD56D0400FB6F89490
:101FE000DEBF0FBECDBFFE01E659FF4F9183808358
:101FF000FE01E459FF4F71836083FE01E759FF4FF3
:102000001082FE01E959FF4F11821082FE01EB5947
:10201000FF4F11821082FE01ED59FF4F1182108295
:10202000DE01A959BF4FFE01E459FF4F8081918124
:1020300096958795969587958D939C93DE01AD59DE
:10204000BF4FFE01E459FF4F8081918183709070F2
:102050008D939C93FE01ED59FF4F80819181969560
:102060008795FE01E759FF4F8083DE01AB59BF4FD3
:10207000FE01ED59FF4F808191818D939C93FE016C
:10208000EB59FF4F808191810196FE01E659FF4F88
:102090000190F081E02D91838083FE01EB59FF4F89
:1020A000808191810296FE01E659FF4F0190F081F7
:1020B000E02D93838283FE01E659FF4FA081B18119
:1020C000FE01E959FF4F808191811B969C938E936D
:1020D0001A97FE01E659FF4F0190F081E02D81E053
:1020E00090E0918780870E94CF0F88E192E00E9464
:1020F000440BFE01E659FF4F0190F081E02D208155
:10210000318182E061E0A90122E030E00E94210BF0
:10211000FE01E15AFF4F80E090E0AAEFB3E4808334
:102120009183A283B3838E01055A1F4FFE01E15AAA
:10213000FF4F608171818281938126E636E646E613
:1021400055E40E941631DC01CB01F80180839183B4
:10215000A283B383FE01E55AFF4F608171818281C2
:10216000938120E030E040E85FE30E941C33882345
:1021700044F4FE01E75AFF4F81E090E091838083B1
:1021800064C0FE01E55AFF4F6081718182819381B5
:1021900020E03FEF4FE757E40E94BC3218160CF0E6
:1021A00043C0FE01E15AFF4F6081718182819381BA
:1021B00020E030E040E251E40E941631DC01CB0126
:1021C0008E01075A1F4FBC01CD010E94402FDC0138
:1021D000CB01F801918380831FC0FE01E95AFF4FB4
:1021E00080E791E091838083FE01E95AFF4F80816F
:1021F00091810197F1F7FE01E95AFF4F91838083A6
:10220000DE01A75ABF4FFE01E75AFF4F808191813F
:10221000019711969C938E93FE01E75AFF4F8081A0
:1022200091810097D1F627C08E01075A1F4FFE01FA
:10223000E55AFF4F60817181828193810E94402F16
:10224000DC01CB01F80191838083DE01AB5ABF4FE3
:10225000FE01E75AFF4F808191818D939C93FE018F
:10226000EB5AFF4F808191810197F1F7FE01EB5A04
:10227000FF4F918380830E94CF0F81E292E00E9402
:10228000440BFE01E659FF4F0190F081E02D2281C1
:10229000338182E061E0A90122E030E00E94210B5D
:1022A000FE01EF5AFF4F80E090E0AAEFB3E4808395
:1022B0009183A283B3838E01035B1F4FFE01EF5A0C
:1022C000FF4F608171818281938126E636E646E682
:1022D00055E40E941631DC01CB01F8018083918323
:1022E000A283B383FE01E35BFF4F60817181828132
:1022F000938120E030E040E85FE30E941C338823B4
:1023000044F4FE01E55BFF4F81E090E09183808320
:1023100064C0FE01E35BFF4F608171818281938124
:1023200020E03FEF4FE757E40E94BC3218160CF054
:1023300043C0FE01EF5AFF4F60817181828193811A
:1023400020E030E040E251E40E941631DC01CB0194
:102350008E01055B1F4FBC01CD010E94402FDC01A7
:10236000CB01F801918380831FC0FE01E75BFF4F23
:1023700080E791E091838083FE01E75BFF4F8081DE
:1023800091810197F1F7FE01E75BFF4F9183808315
:10239000DE01A55BBF4FFE01E55BFF4F80819181B0
:1023A000019711969C938E93FE01E55BFF4F808110
:1023B00091810097D1F627C08E01055B1F4FFE016A
:1023C000E35BFF4F60817181828193810E94402F86
:1023D000DC01CB01F80191838083DE01A95BBF4F53
:1023E000FE01E55BFF4F808191818D939C93FE01FF
:1023F000E95BFF4F808191810197F1F7FE01E95B75
:10240000FF4F918380830E94CF0F8BE292E00E9466
:10241000440BFE01E659FF4F0190F081E02D22852B
:10242000338582E061E0A90122E030E00E94210BC7
:10243000FE01ED5BFF4F80E090E0AAEFB3E4808304
:102440009183A283B3838E01015C1F4FFE01ED5B7C
:10245000FF4F608171818281938126E636E646E6F0
:1024600055E40E941631DC01CB01F8018083918391
:10247000A283B383FE01FF96608171818281938183
:1024800020E030E040E85FE30E941C3388232CF416
:1024900081E090E09EAF8DAF46C0FE01FF96608167
:1024A00071818281938120E03FEF4FE757E40E94E2
:1024B000BC32181664F5FE01ED5BFF4F608171813F
:1024C0008281938120E030E040E251E40E941631A5
:1024D000DC01CB01BC01CD010E94402FDC01CB010E
:1024E0009EAF8DAF0FC080E791E09CAF8BAF8BADFF
:1024F0009CAD0197F1F79CAF8BAF8DAD9EAD019771
:102500009EAF8DAF8DAD9EAD009769F716C0FE01F1
:10251000FF9660817181828193810E94402FDC014E
:10252000CB019EAF8DAF8DAD9EAD9AAF89AF89AD1A
:102530009AAD0197F1F79AAF89AF0E94CF0F89E367
:1025400092E00E94440BFE01E759FF4F8081282F43
:1025500030E082E061E0A90122E030E00E94210B3E
:1025600080E090E0AAEFB3E48DAB9EABAFABB8AF29
:102570006DA97EA98FA998AD26E636E646E655E414
:102580000E941631DC01CB0189AB9AABABABBCAB83
:1025900069A97AA98BA99CA920E030E040E85FE313
:1025A0000E941C3388232CF481E090E098AB8FA725
:1025B0003FC069A97AA98BA99CA920E03FEF4FE70A
:1025C00057E40E94BC3218164CF56DA97EA98FA95C
:1025D00098AD20E030E040E251E40E941631DC0189
:1025E000CB01BC01CD010E94402FDC01CB0198AB97
:1025F0008FA70FC080E791E09EA78DA78DA59EA510
:102600000197F1F79EA78DA78FA598A9019798AB81
:102610008FA78FA598A9009769F714C069A97AA90F
:102620008BA99CA90E94402FDC01CB0198AB8FA7FE
:102630008FA598A99CA78BA78BA59CA50197F1F7BF
:102640009CA78BA7FE01E759FF4F80818130F1F4F1
:10265000FE01E659FF4FA081B181FE01EB59FF4F0A
:102660008081918117969C938E931697FE01EB596A
:10267000FF4F80819181880F991FFE01E659FF4F1E
:102680000190F081E02D958384831EC0FE01EB59FB
:10269000FF4F808191810296880F991FFE01E659B4
:1026A000FF4F0190F081E02D95838483FE01EB596B
:1026B000FF4F808191810296FE01E659FF4F019004
:1026C000F081E02D978386830E94CF0F8FE392E005
:1026D0000E94440BFE01E659FF4F0190F081E02D6E
:1026E0002481358182E061E0A90122E030E00E948E
:1026F000210B80E090E0AAEFB3E48FA398A7A9A7ED
:10270000BAA76FA178A589A59AA526E636E646E67A
:1027100055E40E941631DC01CB018BA39CA3ADA331
:10272000BEA36BA17CA18DA19EA120E030E040E87A
:102730005FE30E941C3388232CF481E090E09AA38D
:1027400089A33FC06BA17CA18DA19EA120E03FEF9A
:102750004FE757E40E94BC3218164CF56FA178A5DC
:1027600089A59AA520E030E040E251E40E941631AC
:10277000DC01CB01BC01CD010E94402FDC01CB016B
:102780009AA389A30FC080E791E098A38F8F8F8DC4
:1027900098A10197F1F798A38F8F89A19AA101972A
:1027A0009AA389A389A19AA1009769F714C06BA184
:1027B0007CA18DA19EA10E94402FDC01CB019AA398
:1027C00089A389A19AA19E8F8D8F8D8D9E8D019752
:1027D000F1F79E8F8D8F0E94CF0F86E492E00E94CA
:1027E000440BFE01E659FF4F0190F081E02D268158
:1027F000378182E061E0A90122E030E00E94210BF4
:1028000080E090E0AAEFB3E4898F9A8FAB8FBC8F02
:10281000698D7A8D8B8D9C8D26E636E646E655E4ED
:102820000E941631DC01CB018D8B9E8BAF8BB88F54
:102830006D897E898F89988D20E030E040E85FE3E4
:102840000E941C3388232CF481E090E09C8B8B8BBE
:102850003FC06D897E898F89988D20E03FEF4FE7DB
:1028600057E40E94BC3218164CF5698D7A8D8B8D19
:102870009C8D20E030E040E251E40E941631DC0102
:10288000CB01BC01CD010E94402FDC01CB019C8B10
:102890008B8B0FC080E791E09A8B898B89899A890D
:1028A0000197F1F79A8B898B8B899C8901979C8B77
:1028B0008B8B8B899C89009769F714C06D897E8901
:1028C0008F89988D0E94402FDC01CB019C8B8B8BD4
:1028D0008B899C89988B8F878F8598890197F1F7D1
:1028E000988B8F870E94CF0F80E090E0AAEFB3E42F
:1028F0008B879C87AD87BE876B857C858D859E8504
:1029000026E636E646E655E40E941631DC01CB01A8
:102910008F839887A987BA876F81788589859A85FB
:1029200020E030E040E85FE30E941C3388232CF471
:1029300081E090E09E838D833FC06F81788589859B
:102940009A8520E03FEF4FE757E40E94BC3218160B
:102950004CF56B857C858D859E8520E030E040E2DE
:1029600051E40E941631DC01CB01BC01CD010E9473
:10297000402FDC01CB019E838D830FC080E791E067
:102980009C838B838B819C810197F1F79C838B8344
:102990008D819E8101979E838D838D819E8100977D
:1029A00069F714C06F81788589859A850E94402FC8
:1029B000DC01CB019E838D838D819E819A838983E7
:1029C00089819A810197F1F79A838983C359DF4FEF
:1029D0000FB6F894DEBF0FBECDBFCF91DF911F9130
:1029E0000F9108950F931F93DF93CF93CDB7DEB769
:1029F000C858D0400FB6F894DEBF0FBECDBFFE0161
:102A0000E957FF4F91838083FE01EB57FF4F1182FF
:102A10001082FE01ED57FF4F11821082FE01EF5729
:102A2000FF4F11821082FE01E158FF4F1182108288
:102A3000DE01AB57BF4FFE01E957FF4F0190F08118
:102A4000E02D808591858D939C93DE01AB57BF4F20
:102A5000FE01EB57FF4F8081918101968D939C93EE
:102A6000FE01E957FF4FA081B181FE01EB57FF4FF7
:102A70008081918119969C938E9318970E94CF0F15
:102A80008DE492E00E94440BFE01E558FF4F80E088
:102A900090E0AAEFB3E480839183A283B3838E0195
:102AA00009581F4FFE01E558FF4F608171818281F7
:102AB000938126E636E646E655E40E941631DC01AF
:102AC000CB01F80180839183A283B383FE01E9588F
:102AD000FF4F608171818281938120E030E040E886
:102AE0005FE30E941C33882344F4FE01EB58FF4F40
:102AF00081E090E09183808364C0FE01E958FF4F3C
:102B0000608171818281938120E03FEF4FE757E43C
:102B10000E94BC3218160CF043C0FE01E558FF4F6E
:102B2000608171818281938120E030E040E251E454
:102B30000E941631DC01CB018E010B581F4FBC01E6
:102B4000CD010E94402FDC01CB01F80191838083ED
:102B50001FC0FE01ED58FF4F80E791E09183808315
:102B6000FE01ED58FF4F808191810197F1F7FE0141
:102B7000ED58FF4F91838083DE01AB58BF4FFE01BC
:102B8000EB58FF4F80819181019711969C938E9312
:102B9000FE01EB58FF4F808191810097D1F627C04D
:102BA0008E010B581F4FFE01E958FF4F6081718164
:102BB000828193810E94402FDC01CB01F801918337
:102BC0008083DE01AF58BF4FFE01EB58FF4F80817D
:102BD00091818D939C93FE01EF58FF4F80819181ED
:102BE0000197F1F7FE01EF58FF4F918380830E9418
:102BF000CF0F87E592E00E94440BFE01EB57FF4F99
:102C00002081318182E061E0A90122E030E00E9470
:102C1000210BFE01E359FF4F80E090E0AAEFB3E4FF
:102C200080839183A283B3838E0107591F4FFE01D6
:102C3000E359FF4F608171818281938126E636E6F8
:102C400046E655E40E941631DC01CB01F801808391
:102C50009183A283B383FE01E759FF4F60817181A5
:102C60008281938120E030E040E85FE30E941C33E2
:102C7000882344F4FE01E959FF4F81E090E09183FD
:102C8000808364C0FE01E759FF4F608171818281BA
:102C9000938120E03FEF4FE757E40E94BC321816C3
:102CA0000CF043C0FE01E359FF4F608171818281C6
:102CB000938120E030E040E251E40E941631DC01D3
:102CC000CB018E0109591F4FBC01CD010E94402F3D
:102CD000DC01CB01F801918380831FC0FE01EB5919
:102CE000FF4F80E791E091838083FE01EB59FF4F16
:102CF000808191810197F1F7FE01EB59FF4F91839C
:102D00008083DE01A959BF4FFE01E959FF4F808141
:102D10009181019711969C938E93FE01E959FF4F83
:102D2000808191810097D1F628C08E0109591F4FEB
:102D3000FE01E759FF4F60817181828193810E947A
:102D4000402FDC01CB01F80191838083DE01AD5976
:102D5000BF4FFE01E959FF4F8081918111969C93ED
:102D60008E93FE01ED59FF4F808191810197F1F71C
:102D7000FE01ED59FF4F91838083FE01E957FF4F1C
:102D80000190F081E02D26813781FE01EB57FF4F46
:102D9000808191812817390709F0DEC00E94CF0F8A
:102DA00084E692E00E94440BFE01E15AFF4F80E06E
:102DB00090E0AAEFB3E480839183A283B3838E0172
:102DC000055A1F4FFE01E15AFF4F608171818281D8
:102DD000938126E636E646E655E40E941631DC018C
:102DE000CB01F80180839183A283B383FE01E55A6E
:102DF000FF4F608171818281938120E030E040E863
:102E00005FE30E941C33882344F4FE01E75AFF4F1E
:102E100081E090E09183808364C0FE01E55AFF4F1A
:102E2000608171818281938120E03FEF4FE757E419
:102E30000E94BC3218160CF043C0FE01E15AFF4F4D
:102E4000608171818281938120E030E040E251E431
:102E50000E941631DC01CB018E01075A1F4FBC01C5
:102E6000CD010E94402FDC01CB01F80191838083CA
:102E70001FC0FE01E95AFF4F80E791E091838083F4
:102E8000FE01E95AFF4F808191810197F1F7FE0120
:102E9000E95AFF4F91838083DE01A75ABF4FFE019D
:102EA000E75AFF4F80819181019711969C938E93F1
:102EB000FE01E75AFF4F808191810097D1F627C02C
:102EC0008E01075A1F4FFE01E55AFF4F6081718145
:102ED000828193810E94402FDC01CB01F801918314
:102EE0008083DE01AB5ABF4FFE01E75AFF4F80815E
:102EF00091818D939C93FE01EB5AFF4F80819181CC
:102F00000197F1F7FE01EB5AFF4F9183808384EB29
:102F100090E00E94DA0DFE01E158FF4F81E090E061
:102F200091838083DE01AB57BF4FFE01EB57FF4F0C
:102F30008081918101968D939C93FE01E957FF4F0B
:102F4000A081B181FE01EB57FF4F808191811996DD
:102F50009C938E931897EFC0FE01E957FF4F0190A5
:102F6000F081E02D24813581FE01EB57FF4F8081F8
:102F700091812817390709F0D0C00E94CF0F80E750
:102F800092E00E94440BFE01EF5AFF4F80E090E078
:102F9000AAEFB3E480839183A283B3838E01035BA2
:102FA0001F4FFE01EF5AFF4F608171818281938133
:102FB00026E636E646E655E40E941631DC01CB01F2
:102FC000F80180839183A283B383FE01E35BFF4F0B
:102FD000608171818281938120E030E040E85FE38D
:102FE0000E941C33882344F4FE01E55BFF4F81E01F
:102FF00090E09183808364C0FE01E35BFF4F6081BA
:1030000071818281938120E03FEF4FE757E40E9476
:10301000BC3218160CF043C0FE01EF5AFF4F60811E
:1030200071818281938120E030E040E251E40E948E
:103030001631DC01CB018E01055B1F4FBC01CD01B8
:103040000E94402FDC01CB01F801918380831FC0D7
:10305000FE01E75BFF4F80E791E091838083FE01F3
:10306000E75BFF4F808191810197F1F7FE01E75BFC
:10307000FF4F91838083DE01A55BBF4FFE01E55BBF
:10308000FF4F80819181019711969C938E93FE0151
:10309000E55BFF4F808191810097D1F628C08E01BA
:1030A000055B1F4FFE01E35BFF4F608171818281F1
:1030B00093810E94402FDC01CB01F8019183808332
:1030C000DE01A95BBF4FFE01E55BFF4F808191816F
:1030D00011969C938E93FE01E95BFF4F8081918155
:1030E0000197F1F7FE01E95BFF4F91838083FE01B9
:1030F000ED57FF4F82E090E091838083FE01EF5710
:10310000FF4F81E090E091838083FE01E158FF4F03
:1031100081E090E0918380830EC0FE01EF57FF4F66
:1031200081E090E091838083FE01E158FF4F81E0D0
:1031300090E091838083FE01E957FF4F0190F08179
:10314000E02D20813181FE01EB57FF4F808191817D
:103150002817390709F0A1C00E94CF0F8CE792E031
:103160000E94440BFE01ED5BFF4F80E090E0AAEF70
:10317000B3E480839183A283B3838E01015C1F4FEC
:10318000FE01ED5BFF4F608171818281938126E6B4
:1031900036E646E655E40E941631DC01CB01F80123
:1031A00080839183A283B383FE01FF966081718146
:1031B0008281938120E030E040E85FE30E941C338D
:1031C00088232CF481E090E09EAF8DAF46C0FE01D5
:1031D000FF96608171818281938120E03FEF4FE70C
:1031E00057E40E94BC32181664F5FE01ED5BFF4FF8
:1031F000608171818281938120E030E040E251E47E
:103200000E941631DC01CB01BC01CD010E94402F90
:10321000DC01CB019EAF8DAF0FC080E791E09CAF8A
:103220008BAF8BAD9CAD0197F1F79CAF8BAF8DADA4
:103230009EAD01979EAF8DAF8DAD9EAD009769F7A6
:1032400016C0FE01FF9660817181828193810E9488
:10325000402FDC01CB019EAF8DAF8DAD9EAD9AAFFF
:1032600089AF89AD9AAD0197F1F79AAF89AFFE01A9
:10327000ED57FF4F81E090E091838083FE01EF578F
:10328000FF4F81E090E091838083FE01E158FF4F82
:1032900081E090E0918380839CC0FE01E957FF4F5D
:1032A0000190F081E02D22813381FE01EB57FF4F29
:1032B000808191812817390709F08BC00E94CF0FB8
:1032C0008AE892E00E94440B80E090E0AAEFB3E429
:1032D0008DAB9EABAFABB8AF6DA97EA98FA998ADF2
:1032E00026E636E646E655E40E941631DC01CB01BF
:1032F00089AB9AABABABBCAB69A97AA98BA99CA9EA
:1033000020E030E040E85FE30E941C3388232CF487
:1033100081E090E098AB8FA73FC069A97AA98BA9FB
:103320009CA920E03FEF4FE757E40E94BC321816FB
:103330004CF56DA97EA98FA998AD20E030E040E260
:1033400051E40E941631DC01CB01BC01CD010E9489
:10335000402FDC01CB0198AB8FA70FC080E791E035
:103360009EA78DA78DA59EA50197F1F79EA78DA776
:103370008FA598A9019798AB8FA78FA598A90097BB
:1033800069F714C069A97AA98BA99CA90E94402F4A
:10339000DC01CB0198AB8FA78FA598A99CA78BA721
:1033A0008BA59CA50197F1F79CA78BA7FE01ED5774
:1033B000FF4F11821082FE01EF57FF4F81E090E036
:1033C00091838083FE01E158FF4F81E090E091837B
:1033D0008083FE01EF57FF4F8081918181309105FD
:1033E00009F07CC00E94CF0F89E992E00E94440B53
:1033F00080E090E0AAEFB3E48FA398A7A9A7BAA7AB
:103400006FA178A589A59AA526E636E646E655E495
:103410000E941631DC01CB018BA39CA3ADA3BEA3FC
:103420006BA17CA18DA19EA120E030E040E85FE38C
:103430000E941C3388232CF481E090E09AA389A396
:103440003FC06BA17CA18DA19EA120E03FEF4FE783
:1034500057E40E94BC3218164CF56FA178A589A5D7
:103460009AA520E030E040E251E40E941631DC01F0
:10347000CB01BC01CD010E94402FDC01CB019AA3FE
:1034800089A30FC080E791E098A38F8F8F8D98A1BB
:103490000197F1F798A38F8F89A19AA101979AA319
:1034A00089A389A19AA1009769F714C06BA17CA197
:1034B0008DA19EA10E94402FDC01CB019AA389A37C
:1034C00089A19AA19E8F8D8F8D8D9E8D0197F1F789
:1034D0009E8F8D8F8CE390E00E94A10DFE01E1583C
:1034E000FF4F80819181009709F076C086EA92E0D3
:1034F0000E94440B80E090E0AAEFB3E4898F9A8F9A
:10350000AB8FBC8F698D7A8D8B8D9C8D26E636E6D0
:1035100046E655E40E941631DC01CB018D8B9E8B73
:10352000AF8BB88F6D897E898F89988D20E030E0D0
:1035300040E85FE30E941C3388232CF481E090E094
:103540009C8B8B8B3FC06D897E898F89988D20E005
:103550003FEF4FE757E40E94BC3218164CF5698DD7
:103560007A8D8B8D9C8D20E030E040E251E40E940A
:103570001631DC01CB01BC01CD010E94402FDC01E2
:10358000CB019C8B8B8B0FC080E791E09A8B898B52
:1035900089899A890197F1F79A8B898B8B899C8904
:1035A00001979C8B8B8B8B899C89009769F714C042
:1035B0006D897E898F89988D0E94402FDC01CB0117
:1035C0009C8B8B8B8B899C89988B8F878F85988917
:1035D0000197F1F7988B8F870E94CF0F8CEA92E0CA
:1035E0000E94440BFE01ED57FF4F2081318182E0A4
:1035F00061E0A90122E030E00E94210B80E090E030
:10360000AAEFB3E48B879C87AD87BE876B857C85EB
:103610008D859E8526E636E646E655E40E941631FF
:10362000DC01CB018F839887A987BA876F81788562
:1036300089859A8520E030E040E85FE30E941C33F2
:1036400088232CF481E090E09E838D833FC06F81BE
:10365000788589859A8520E03FEF4FE757E40E94FF
:10366000BC3218164CF56B857C858D859E8520E0D7
:1036700030E040E251E40E941631DC01CB01BC0194
:10368000CD010E94402FDC01CB019E838D830FC0B2
:1036900080E791E09C838B838B819C810197F1F77C
:1036A0009C838B838D819E8101979E838D838D81E9
:1036B0009E81009769F714C06F81788589859A8506
:1036C0000E94402FDC01CB019E838D838D819E81E2
:1036D0009A83898389819A810197F1F79A838983F3
:1036E000FE01ED57FF4F80819181C857DF4F0FB624
:1036F000F894DEBF0FBECDBFCF91DF911F910F9128
:103700000895DF93CF93CDB7DEB7C654D0400FB640
:10371000F894DEBF0FBECDBFFE01EB5BFF4F918380
:1037200080838CE0FE01F996DF01982F1D929A9517
:10373000E9F70E946E0F6BE774E18EEE90E40E9451
:10374000830F80E090E0A0E7B2E48DAB9EABAFAB1F
:10375000B8AF6DA97EA98FA998AD26E636E646E6F4
:1037600055E40E941631DC01CB0189AB9AABABABBF
:10377000BCAB69A97AA98BA99CA920E030E040E8FC
:103780005FE30E941C3388232CF481E090E098AB27
:103790008FA73FC069A97AA98BA99CA920E03FEF18
:1037A0004FE757E40E94BC3218164CF56DA97EA96C
:1037B0008FA998AD20E030E040E251E40E9416313C
:1037C000DC01CB01BC01CD010E94402FDC01CB010B
:1037D00098AB8FA70FC080E791E09EA78DA78DA51E
:1037E0009EA50197F1F79EA78DA78FA598A9019790
:1037F00098AB8FA78FA598A9009769F714C069A9FE
:103800007AA98BA99CA90E94402FDC01CB0198AB1F
:103810008FA78FA598A99CA78BA78BA59CA501977F
:10382000F1F79CA78BA760E070E080E090E00E9439
:10383000830F80E090E0A0E7B2E48FA398A7A9A748
:10384000BAA76FA178A589A59AA526E636E646E629
:1038500055E40E941631DC01CB018BA39CA3ADA3E0
:10386000BEA36BA17CA18DA19EA120E030E040E829
:103870005FE30E941C3388232CF481E090E09AA33C
:1038800089A33FC06BA17CA18DA19EA120E03FEF49
:103890004FE757E40E94BC3218164CF56FA178A58B
:1038A00089A59AA520E030E040E251E40E9416315B
:1038B000DC01CB01BC01CD010E94402FDC01CB011A
:1038C0009AA389A30FC080E791E098A38F8F8F8D73
:1038D00098A10197F1F798A38F8F89A19AA10197D9
:1038E0009AA389A389A19AA1009769F714C06BA133
:1038F0007CA18DA19EA10E94402FDC01CB019AA347
:1039000089A389A19AA19E8F8D8F8D8D9E8D019700
:10391000F1F79E8F8D8F6BE774E18EEE90E40E943D
:10392000830F80E090E0A0E7B2E4898F9A8FAB8F9D
:10393000BC8F698D7A8D8B8D9C8D26E636E646E6AA
:1039400055E40E941631DC01CB018D8B9E8BAF8B31
:10395000B88F6D897E898F89988D20E030E040E8AE
:103960005FE30E941C3388232CF481E090E09C8B61
:103970008B8B3FC06D897E898F89988D20E03FEFCA
:103980004FE757E40E94BC3218164CF5698D7A8DCA
:103990008B8D9C8D20E030E040E251E40E94163196
:1039A000DC01CB01BC01CD010E94402FDC01CB0129
:1039B0009C8B8B8B0FC080E791E09A8B898B8989D8
:1039C0009A890197F1F79A8B898B8B899C8901974A
:1039D0009C8B8B8B8B899C89009769F714C06D89B0
:1039E0007E898F89988D0E94402FDC01CB019C8BB2
:1039F0008B8B8B899C89988B8F878F859889019772
:103A0000F1F7988B8F870E9495000E94940581E0C2
:103A100061E00E94030983EB92E00E94440BFE01E7
:103A2000EB5BFF4F2081318182E061E0A90122E060
:103A300030E00E94210B80E090E0AAEFB3E48B8796
:103A40009C87AD87BE876B857C858D859E8526E6A8
:103A500036E646E655E40E941631DC01CB018F8341
:103A60009887A987BA876F81788589859A8520E0AC
:103A700030E040E85FE30E941C3388232CF481E0AF
:103A800090E09E838D833FC06F81788589859A857C
:103A900020E03FEF4FE757E40E94BC3218164CF588
:103AA0006B857C858D859E8520E030E040E251E489
:103AB0000E941631DC01CB01BC01CD010E94402FD8
:103AC000DC01CB019E838D830FC080E791E09C8356
:103AD0008B838B819C810197F1F79C838B838D81F4
:103AE0009E8101979E838D838D819E81009769F7CA
:103AF00014C06F81788589859A850E94402FDC01EA
:103B0000CB019E838D838D819E819A838983898158
:103B10009A810197F1F79A838983CE01C996FE01B4
:103B2000EB5BFF4F20813181B9010E94E60F0E94BB
:103B3000CF0FFE01EB5BFF4F808191819E01275CDF
:103B40003F4FB9010E94B01D80E090E0CA5BDF4F9B
:103B50000FB6F894DEBF0FBECDBFCF91DF910895B1
:103B60000F931F93DF93CF93CDB7DEB7CB5FD040DA
:103B70000FB6F894DEBF0FBECDBFFE01E850FF4F79
:103B800091838083FE01E650FF4F71836083FE01C5
:103B9000EC50FF4F11821082FE01ED50FF4F10825A
:103BA000FE01EF50FF4F11821082FE01E151FF4FE5
:103BB00011821082FE01E650FF4F0190F081E02D4E
:103BC000808191818130910529F4FE01ED50FF4FF4
:103BD00081E080838AEF6AEF0E94590BFE01EC506E
:103BE000FF4F808191818530910509F0F4C2FE017B
:103BF000ED50FF4F8081813009F0EDC281E061E03E
:103C00000E9403098DEB92E00E94440BFE01EC50F0
:103C1000FF4F118210820E94AE0CFE01E551FF4F52
:103C200080E090E0AAEFB4E480839183A283B38321
:103C30008E0109511F4FFE01E551FF4F60817181D7
:103C40008281938126E636E646E655E40E941631E7
:103C5000DC01CB01F80180839183A283B383FE0151
:103C6000E951FF4F608171818281938120E030E0D2
:103C700040E85FE30E941C33882344F4FE01EB51CB
:103C8000FF4F81E090E09183808364C0FE01E951A1
:103C9000FF4F608171818281938120E03FEF4FE788
:103CA00057E40E94BC3218160CF043C0FE01E551E7
:103CB000FF4F608171818281938120E030E040E29A
:103CC00051E40E941631DC01CB018E010B511F4FD4
:103CD000BC01CD010E94402FDC01CB01F801918392
:103CE00080831FC0FE01ED51FF4F80E791E091837B
:103CF0008083FE01ED51FF4F808191810197F1F7A3
:103D0000FE01ED51FF4F91838083DE01AB51BF4F28
:103D1000FE01EB51FF4F80819181019711969C9399
:103D20008E93FE01EB51FF4F808191810097D1F678
:103D300027C08E010B511F4FFE01E951FF4F6081DB
:103D40007181828193810E94402FDC01CB01F801B7
:103D500091838083DE01AF51BF4FFE01EB51FF4FD6
:103D6000808191818D939C93FE01EF51FF4F808163
:103D700091810197F1F7FE01EF51FF4F918380830D
:103D80006BE774E18EEE90E40E94830FFE01E35234
:103D9000FF4F80E090E0A0E7B2E480839183A283AC
:103DA000B3838E0107521F4FFE01E352FF4F608124
:103DB00071818281938126E636E646E655E40E94CB
:103DC0001631DC01CB01F80180839183A283B38398
:103DD000FE01E752FF4F608171818281938120E073
:103DE00030E040E85FE30E941C33882344F4FE0186
:103DF000E952FF4F81E090E09183808364C0FE012F
:103E0000E752FF4F608171818281938120E03FEF13
:103E10004FE757E40E94BC3218160CF043C0FE0175
:103E2000E352FF4F608171818281938120E030E015
:103E300040E251E40E941631DC01CB018E010952AF
:103E40001F4FBC01CD010E94402FDC01CB01F801C6
:103E5000918380831FC0FE01EB52FF4F80E791E00A
:103E600091838083FE01EB52FF4F80819181019706
:103E7000F1F7FE01EB52FF4F91838083DE01A952DF
:103E8000BF4FFE01E952FF4F80819181019711964A
:103E90009C938E93FE01E952FF4F808191810097A0
:103EA000D1F627C08E0109521F4FFE01E752FF4F86
:103EB00060817181828193810E94402FDC01CB015E
:103EC000F80191838083DE01AD52BF4FFE01E952BC
:103ED000FF4F808191818D939C93FE01ED52FF4FA6
:103EE000808191810197F1F7FE01ED52FF4F91839F
:103EF000808360E070E080E090E00E94830FFE012C
:103F0000E153FF4F80E090E0A0E7B2E4808391832B
:103F1000A283B3838E0105531F4FFE01E153FF4F70
:103F2000608171818281938126E636E646E655E41A
:103F30000E941631DC01CB01F80180839183A283BA
:103F4000B383FE01E553FF4F6081718182819381CC
:103F500020E030E040E85FE30E941C33882344F413
:103F6000FE01E753FF4F81E090E09183808364C0BE
:103F7000FE01E553FF4F608171818281938120E0D2
:103F80003FEF4FE757E40E94BC3218160CF043C0D5
:103F9000FE01E153FF4F608171818281938120E0B6
:103FA00030E040E251E40E941631DC01CB018E0189
:103FB00007531F4FBC01CD010E94402FDC01CB01F4
:103FC000F801918380831FC0FE01E953FF4F80E712
:103FD00091E091838083FE01E953FF4F80819181BD
:103FE0000197F1F7FE01E953FF4F91838083DE01D2
:103FF000A753BF4FFE01E753FF4F80819181019787
:1040000011969C938E93FE01E753FF4F808191811F
:104010000097D1F627C08E0107531F4FFE01E553CD
:10402000FF4F60817181828193810E94402FDC016A
:10403000CB01F80191838083DE01AB53BF4FFE01BA
:10404000E753FF4F808191818D939C93FE01EB5349
:10405000FF4F808191810197F1F7FE01EB53FF4FF4
:10406000918380836BE774E18EEE90E40E94830F6E
:10407000FE01EF53FF4F80E090E0AAEFB4E48083AD
:104080009183A283B3838E0103541F4FFE01EF532C
:10409000FF4F608171818281938126E636E646E694
:1040A00055E40E941631DC01CB01F8018083918335
:1040B000A283B383FE01E354FF4F6081718182814B
:1040C000938120E030E040E85FE30E941C338823C6
:1040D00044F4FE01E554FF4F81E090E0918380833A
:1040E00064C0FE01E354FF4F60817181828193813E
:1040F00020E03FEF4FE757E40E94BC3218160CF067
:1041000043C0FE01EF53FF4F608171818281938133
:1041100020E030E040E251E40E941631DC01CB01A6
:104120008E0105541F4FBC01CD010E94402FDC01C0
:10413000CB01F801918380831FC0FE01E754FF4F3C
:1041400080E791E091838083FE01E754FF4F8081F7
:1041500091810197F1F7FE01E754FF4F918380832E
:10416000DE01A554BF4FFE01E554FF4F80819181D0
:10417000019711969C938E93FE01E554FF4F808129
:1041800091810097D1F627C08E0105541F4FFE0183
:10419000E354FF4F60817181828193810E94402F9F
:1041A000DC01CB01F80191838083DE01A954BF4F6C
:1041B000FE01E554FF4F808191818D939C93FE0118
:1041C000E954FF4F808191810197F1F7FE01E95495
:1041D000FF4F9183808389E00E94D40E80937E04F8
:1041E00082E061E00E94030982E064E049E00E940D
:1041F0000E0F8DE00E94D40E80937F0482E061E078
:104200000E94030982E068E04DE00E940E0F809159
:104210007E048B3608F4DDC080917E04863708F07A
:10422000D8C080917F04813408F4D3C080917F048A
:104230008C3408F0CEC081E061E00E94030987EC75
:1042400092E00E94E6088AE090E00E94A10D0E94A0
:10425000AE0CFE01ED54FF4F80E090E0AAEFB3E416
:1042600080839183A283B3838E0101551F4FFE018A
:10427000ED54FF4F608171818281938126E636E69D
:1042800046E655E40E941631DC01CB01F80180833B
:104290009183A283B383FE01E155FF4F6081718159
:1042A0008281938120E030E040E85FE30E941C338C
:1042B000882344F4FE01E355FF4F81E090E09183B1
:1042C000808364C0FE01E155FF4F6081718182816E
:1042D000938120E03FEF4FE757E40E94BC3218166D
:1042E0000CF043C0FE01ED54FF4F6081718182816B
:1042F000938120E030E040E251E40E941631DC017D
:10430000CB018E0103551F4FBC01CD010E94402FF0
:10431000DC01CB01F801918380831FC0FE01E555CC
:10432000FF4F80E791E091838083FE01E555FF4FC9
:10433000808191810197F1F7FE01E555FF4F91834F
:104340008083DE01A355BF4FFE01E355FF4F8081FF
:104350009181019711969C938E93FE01E355FF4F37
:10436000808191810097D1F627C08E0103551F4FA0
:10437000FE01E155FF4F60817181828193810E942E
:10438000402FDC01CB01F80191838083DE01A7552A
:10439000BF4FFE01E355FF4F808191818D939C9328
:1043A000FE01E755FF4F808191810197F1F7FE01F2
:1043B000E755FF4F91838083DE01AC50BF4FFE0174
:1043C000EC50FF4F80819181019611969C938E93C2
:1043D00001CC80917E048B3608F01BC380917E0453
:1043E000833308F416C380917F04833308F411C328
:1043F00080917F04813408F00CC381E061E00E9469
:1044000003098FEC92E00E94E608FE01EB55FF4F96
:1044100080E090E0AAEFB3E480839183A283B3832A
:104420008E010F551F4FFE01EB55FF4F60817181CB
:104430008281938126E636E646E655E40E941631EF
:10444000DC01CB01F80180839183A283B383FE0159
:10445000EF55FF4F608171818281938120E030E0D0
:1044600040E85FE30E941C33882344F4FE01E156D8
:10447000FF4F81E090E09183808364C0FE01EF559F
:10448000FF4F608171818281938120E03FEF4FE790
:1044900057E40E94BC3218160CF043C0FE01EB55E5
:1044A000FF4F608171818281938120E030E040E2A2
:1044B00051E40E941631DC01CB018E0101561F4FE1
:1044C000BC01CD010E94402FDC01CB01F80191839A
:1044D00080831FC0FE01E356FF4F80E791E0918388
:1044E0008083FE01E356FF4F808191810197F1F7B0
:1044F000FE01E356FF4F91838083DE01A156BF4F3B
:10450000FE01E156FF4F80819181019711969C93A6
:104510008E93FE01E156FF4F808191810097D1F685
:1045200027C08E0101561F4FFE01EF55FF4F6081DE
:104530007181828193810E94402FDC01CB01F801BF
:1045400091838083DE01A556BF4FFE01E156FF4FE8
:10455000808191818D939C93FE01E556FF4F808170
:1045600091810197F1F7FE01E556FF4F918380831A
:1045700081E061E00E9403098AED92E00E94E60872
:1045800085E090E00E94C70D0E94AE0CFE01E95646
:10459000FF4F80E090E0AAEFB3E480839183A28391
:1045A000B3838E010D561F4FFE01E956FF4F608108
:1045B00071818281938126E636E646E655E40E94C3
:1045C0001631DC01CB01F80180839183A283B38390
:1045D000FE01ED56FF4F608171818281938120E061
:1045E00030E040E85FE30E941C33882344F4FE017E
:1045F000EF56FF4F81E090E09183808364C0FE011D
:10460000ED56FF4F608171818281938120E03FEF01
:104610004FE757E40E94BC3218160CF043C0FE016D
:10462000E956FF4F608171818281938120E030E003
:1046300040E251E40E941631DC01CB018E010F569D
:104640001F4FBC01CD010E94402FDC01CB01F801BE
:10465000918380831FC0FE01E157FF4F80E791E007
:1046600091838083FE01E157FF4F80819181019703
:10467000F1F7FE01E157FF4F91838083DE01AF56D2
:10468000BF4FFE01EF56FF4F808191810197119638
:104690009C938E93FE01EF56FF4F8081918100978E
:1046A000D1F627C08E010F561F4FFE01ED56FF4F6A
:1046B00060817181828193810E94402FDC01CB0156
:1046C000F80191838083DE01A357BF4FFE01EF56AF
:1046D000FF4F808191818D939C93FE01E357FF4FA3
:1046E000808191810197F1F7FE01E357FF4F91839C
:1046F0008083FE01E950FF4F80917E04808389E032
:104700000E94D40EFE01EA50FF4F8083FE01EA5062
:10471000FF4FDE01A950BF4F90818C91891708F09F
:10472000C1C081E061E00E94030986EE92E00E9430
:10473000E6088AE090E00E94DA0D0E94AE0CFE01CD
:10474000E757FF4F80E090E0AAEFB3E480839183C6
:10475000A283B3838E010B571F4FFE01E757FF4F14
:10476000608171818281938126E636E646E655E4D2
:104770000E941631DC01CB01F80180839183A28372
:10478000B383FE01EB57FF4F60817181828193817A
:1047900020E030E040E85FE30E941C33882344F4CB
:1047A000FE01ED57FF4F81E090E09183808364C06C
:1047B000FE01EB57FF4F608171818281938120E080
:1047C0003FEF4FE757E40E94BC3218160CF043C08D
:1047D000FE01E757FF4F608171818281938120E064
:1047E00030E040E251E40E941631DC01CB018E0141
:1047F0000D571F4FBC01CD010E94402FDC01CB01A2
:10480000F801918380831FC0FE01EF57FF4F80E7BF
:1048100091E091838083FE01EF57FF4F808191816A
:104820000197F1F7FE01EF57FF4F91838083DE017F
:10483000AD57BF4FFE01ED57FF4F8081918101972A
:1048400011969C938E93FE01ED57FF4F80819181CD
:104850000097D1F627C08E010D571F4FFE01EB5771
:10486000FF4F60817181828193810E94402FDC0122
:10487000CB01F80191838083DE01A158BF4FFE0177
:10488000ED57FF4F808191818D939C93FE01E158FC
:10489000FF4F808191810197F1F7FE01E158FF4FB1
:1048A000918380830E94AE0CFE01E558FF4F80E0AB
:1048B00090E0AAEFB3E480839183A283B3838E0157
:1048C00009581F4FFE01E558FF4F608171818281B9
:1048D000938126E636E646E655E40E941631DC0171
:1048E000CB01F80180839183A283B383FE01E95851
:1048F000FF4F608171818281938120E030E040E848
:104900005FE30E941C33882344F4FE01EB58FF4F01
:1049100081E090E09183808364C0FE01E958FF4FFD
:10492000608171818281938120E03FEF4FE757E4FE
:104930000E94BC3218160CF043C0FE01E558FF4F30
:10494000608171818281938120E030E040E251E416
:104950000E941631DC01CB018E010B581F4FBC01A8
:10496000CD010E94402FDC01CB01F80191838083AF
:104970001FC0FE01ED58FF4F80E791E091838083D7
:10498000FE01ED58FF4F808191810197F1F7FE0103
:10499000ED58FF4F91838083DE01AB58BF4FFE017E
:1049A000EB58FF4F80819181019711969C938E93D4
:1049B000FE01EB58FF4F808191810097D1F60AC923
:1049C0008E010B581F4FFE01E958FF4F6081718126
:1049D000828193810E94402FDC01CB01F8019183F9
:1049E0008083DE01AF58BF4FFE01EB58FF4F80813F
:1049F000918111969C938E93FE01EF58FF4F808119
:104A000091810197F1F7FE01EF58FF4F9183808369
:104A1000E1C880917E048B3608F06AC380917E04E1
:104A2000833308F465C381E061E00E94030985E0F7
:104A300090E00E94060E0E94AE0CFE01E359FF4F6B
:104A400080E090E0AAEFB3E480839183A283B383F4
:104A50008E0107591F4FFE01E359FF4F608171819D
:104A60008281938126E636E646E655E40E941631B9
:104A7000DC01CB01F80180839183A283B383FE0123
:104A8000E759FF4F608171818281938120E030E09E
:104A900040E85FE30E941C33882344F4FE01E95997
:104AA000FF4F81E090E09183808364C0FE01E7596D
:104AB000FF4F608171818281938120E03FEF4FE75A
:104AC00057E40E94BC3218160CF043C0FE01E359B3
:104AD000FF4F608171818281938120E030E040E26C
:104AE00051E40E941631DC01CB018E0109591F4FA0
:104AF000BC01CD010E94402FDC01CB01F801918364
:104B000080831FC0FE01EB59FF4F80E791E0918346
:104B10008083FE01EB59FF4F808191810197F1F76E
:104B2000FE01EB59FF4F91838083DE01A959BF4FEE
:104B3000FE01E959FF4F80819181019711969C9365
:104B40008E93FE01E959FF4F808191810097D1F644
:104B500027C08E0109591F4FFE01E759FF4F6081A1
:104B60007181828193810E94402FDC01CB01F80189
:104B700091838083DE01AD59BF4FFE01E959FF4F9C
:104B8000808191818D939C93FE01ED59FF4F80812F
:104B900091810197F1F7FE01ED59FF4F91838083D9
:104BA000FE01E950FF4F80917E04808389E00E94DE
:104BB000D40EFE01EA50FF4F8083FE01EA50FF4F02
:104BC000DE01A950BF4F90818C91981708F082C1E7
:104BD00081E061E00E94030983EF92E00E94E60811
:104BE0008AE090E00E941F0E0E94AE0CFE01E15A86
:104BF000FF4F80E090E0AAEFB3E480839183A2832B
:104C0000B3838E01055A1F4FFE01E15AFF4F6081A9
:104C100071818281938126E636E646E655E40E945C
:104C20001631DC01CB01F80180839183A283B38329
:104C3000FE01E55AFF4F608171818281938120E0FE
:104C400030E040E85FE30E941C33882344F4FE0117
:104C5000E75AFF4F81E090E09183808364C0FE01BA
:104C6000E55AFF4F608171818281938120E03FEF9F
:104C70004FE757E40E94BC3218160CF043C0FE0107
:104C8000E15AFF4F608171818281938120E030E0A1
:104C900040E251E40E941631DC01CB018E01075A3B
:104CA0001F4FBC01CD010E94402FDC01CB01F80158
:104CB000918380831FC0FE01E95AFF4F80E791E096
:104CC00091838083FE01E95AFF4F80819181019792
:104CD000F1F7FE01E95AFF4F91838083DE01A75A65
:104CE000BF4FFE01E75AFF4F8081918101971196D6
:104CF0009C938E93FE01E75AFF4F8081918100972C
:104D0000D1F627C08E01075A1F4FFE01E55AFF4F0B
:104D100060817181828193810E94402FDC01CB01EF
:104D2000F80191838083DE01AB5ABF4FFE01E75A41
:104D3000FF4F808191818D939C93FE01EB5AFF4F31
:104D4000808191810197F1F7FE01EB5AFF4F91832A
:104D500080838AE090E00E94A10D0E94AE0CFE01CB
:104D6000EF5AFF4F80E090E0AAEFB3E48083918395
:104D7000A283B3838E01035B1F4FFE01EF5AFF4FE7
:104D8000608171818281938126E636E646E655E4AC
:104D90000E941631DC01CB01F80180839183A2834C
:104DA000B383FE01E35BFF4F608171818281938158
:104DB00020E030E040E85FE30E941C33882344F4A5
:104DC000FE01E55BFF4F81E090E09183808364C04A
:104DD000FE01E35BFF4F608171818281938120E05E
:104DE0003FEF4FE757E40E94BC3218160CF043C067
:104DF000FE01EF5AFF4F608171818281938120E033
:104E000030E040E251E40E941631DC01CB018E011A
:104E1000055B1F4FBC01CD010E94402FDC01CB017F
:104E2000F801918380831FC0FE01E75BFF4F80E79D
:104E300091E091838083FE01E75BFF4F8081918148
:104E40000197F1F7FE01E75BFF4F91838083DE015D
:104E5000A55BBF4FFE01E55BFF4F8081918101970C
:104E600011969C938E93FE01E55BFF4F80819181AB
:104E70000097D1F628C08E01055B1F4FFE01E35B52
:104E8000FF4F60817181828193810E94402FDC01FC
:104E9000CB01F80191838083DE01A95BBF4FFE0146
:104EA000E55BFF4F8081918111969C938E93FE016B
:104EB000E95BFF4F808191810197F1F7FE01E95B8A
:104EC000FF4F91838083FE01EF50FF4F81E090E020
:104ED00091838083FE01EF50FF4F80819181009785
:104EE00009F08BC08AE090E00E94B40D0E94AE0CE5
:104EF000FE01ED5BFF4F80E090E0AAEFB3E480831A
:104F00009183A283B3838E01015C1F4FFE01ED5B91
:104F1000FF4F608171818281938126E636E646E605
:104F200055E40E941631DC01CB01F80180839183A6
:104F3000A283B383FE01FF96608171818281938198
:104F400020E030E040E85FE30E941C3388232CF42B
:104F500081E090E09EAF8DAF46C0FE01FF9660817C
:104F600071818281938120E03FEF4FE757E40E94F7
:104F7000BC32181664F5FE01ED5BFF4F6081718154
:104F80008281938120E030E040E251E40E941631BA
:104F9000DC01CB01BC01CD010E94402FDC01CB0123
:104FA0009EAF8DAF0FC080E791E09CAF8BAF8BAD14
:104FB0009CAD0197F1F79CAF8BAF8DAD9EAD019786
:104FC0009EAF8DAF8DAD9EAD009769F716C0FE0107
:104FD000FF9660817181828193810E94402FDC0164
:104FE000CB019EAF8DAF8DAD9EAD9AAF89AF89AD30
:104FF0009AAD0197F1F79AAF89AF0E94AE0C80E0AD
:1050000090E0AAEFB3E48DAB9EABAFABB8AF6DA9A8
:105010007EA98FA998AD26E636E646E655E40E94BD
:105020001631DC01CB0189AB9AABABABBCAB69A948
:105030007AA98BA99CA920E030E040E85FE30E94B8
:105040001C3388232CF481E090E098AB8FA73FC0FD
:1050500069A97AA98BA99CA920E03FEF4FE757E403
:105060000E94BC3218164CF56DA97EA98FA998AD87
:1050700020E030E040E251E40E941631DC01CB0137
:10508000BC01CD010E94402FDC01CB0198AB8FA762
:105090000FC080E791E09EA78DA78DA59EA50197E3
:1050A000F1F79EA78DA78FA598A9019798AB8FA719
:1050B0008FA598A9009769F714C069A97AA98BA947
:1050C0009CA90E94402FDC01CB0198AB8FA78FA534
:1050D00098A99CA78BA78BA59CA50197F1F79CA7E6
:1050E0008BA7FE01EF50FF4F118210820C94EA1D36
:1050F00080917E04863708F488C080917F048333D2
:1051000008F483C081E061E00E94030987E093E036
:105110000E94E60885E090E00E94060E0E94AE0C18
:1051200080E090E0AAEFB3E48FA398A7A9A7BAA75D
:105130006FA178A589A59AA526E636E646E655E448
:105140000E941631DC01CB018BA39CA3ADA3BEA3AF
:105150006BA17CA18DA19EA120E030E040E85FE33F
:105160000E941C3388232CF481E090E09AA389A349
:1051700040C06BA17CA18DA19EA120E03FEF4FE735
:1051800057E40E94BC32181654F56FA178A589A582
:105190009AA520E030E040E251E40E941631DC01A3
:1051A000CB01BC01CD010E94402FDC01CB019AA3B1
:1051B00089A30FC080E791E098A38F8F8F8D98A16E
:1051C0000197F1F798A38F8F89A19AA101979AA3CC
:1051D00089A389A19AA1009769F70C94EA1D6BA194
:1051E0007CA18DA19EA10E94402FDC01CB019AA33E
:1051F00089A389A19AA19E8F8D8F8D8D9E8D0197F8
:10520000F1F79E8F8D8F0C94EA1D80917F0482337D
:1052100030F080917E04823310F00C94EA1DFE0180
:10522000E650FF4F808191810E94F214FE01E1510E
:10523000FF4F918380830E94CF0F8CEA92E00E94FF
:10524000440BFE01E151FF4F2081318182E061E09A
:10525000A90121E030E00E94210BFE01E151FF4F46
:10526000808191818130910509F083C0FE01ED506C
:10527000FF4F81E080830E94CF0F89E193E00E947D
:10528000440B80E090E0AAEFB3E4898F9A8FAB8F54
:10529000BC8F698D7A8D8B8D9C8D26E636E646E631
:1052A00055E40E941631DC01CB018D8B9E8BAF8BB8
:1052B000B88F6D897E898F89988D20E030E040E835
:1052C0005FE30E941C3388232CF481E090E09C8BE8
:1052D0008B8B3FC06D897E898F89988D20E03FEF51
:1052E0004FE757E40E94BC3218164CF5698D7A8D51
:1052F0008B8D9C8D20E030E040E251E40E9416311D
:10530000DC01CB01BC01CD010E94402FDC01CB01AF
:105310009C8B8B8B0FC080E791E09A8B898B89895E
:105320009A890197F1F79A8B898B8B899C890197D0
:105330009C8B8B8B8B899C89009769F714C06D8936
:105340007E898F89988D0E94402FDC01CB019C8B38
:105350008B8B8B899C89988B8F878F8598890197F8
:10536000F1F7988B8F87FE01EC50FF4F118210826E
:105370007CC0FE01ED50FF4F10820E94CF0F83E2F0
:1053800093E00E94440B80E090E0AAEFB3E48B87A7
:105390009C87AD87BE876B857C858D859E8526E63F
:1053A00036E646E655E40E941631DC01CB018F83D8
:1053B0009887A987BA876F81788589859A8520E043
:1053C00030E040E85FE30E941C3388232CF481E046
:1053D00090E09E838D833FC06F81788589859A8513
:1053E00020E03FEF4FE757E40E94BC3218164CF51F
:1053F0006B857C858D859E8520E030E040E251E420
:105400000E941631DC01CB01BC01CD010E94402F6E
:10541000DC01CB019E838D830FC080E791E09C83EC
:105420008B838B819C810197F1F79C838B838D818A
:105430009E8101979E838D838D819E81009769F760
:1054400014C06F81788589859A850E94402FDC0180
:10545000CB019E838D838D819E819A8389838981EF
:105460009A810197F1F79A838983FE01E151FF4FF9
:10547000808191818230910511F00C94EA1D0E9487
:10548000CF0F82E393E00E94440B0C94EA1D0F932C
:105490001F93DF93CF93CDB7DEB7CA56D0400FB678
:1054A000F894DEBF0FBECDBFFE01E759FF4F9183D9
:1054B0008083FE01E959FF4F11821082FE01EA59F3
:1054C000FF4F1082FE01EB59FF4F1082FE01EC5995
:1054D000FF4F1082FE01ED59FF4F108283E00E94C2
:1054E000D40EFE01EA59FF4F808382E00E94D40E61
:1054F000FE01EB59FF4F808381E00E94D40EFE0134
:10550000EC59FF4F8083FE01ED59FF4F108282E07E
:1055100061E043E00E940E0F82E065E042E00E94FD
:105520000E0F82E069E041E00E940E0F81E061E031
:105530000E94030989E393E00E94440BFE01E15AB3
:10554000FF4F80E090E0AAEFB3E480839183A283D1
:10555000B3838E01055A1F4FFE01E15AFF4F608150
:1055600071818281938126E636E646E655E40E9403
:105570001631DC01CB01F80180839183A283B383D0
:10558000FE01E55AFF4F608171818281938120E0A5
:1055900030E040E85FE30E941C33882344F4FE01BE
:1055A000E75AFF4F81E090E09183808364C0FE0161
:1055B000E55AFF4F608171818281938120E03FEF46
:1055C0004FE757E40E94BC3218160CF043C0FE01AE
:1055D000E15AFF4F608171818281938120E030E048
:1055E00040E251E40E941631DC01CB018E01075AE2
:1055F0001F4FBC01CD010E94402FDC01CB01F801FF
:10560000918380831FC0FE01E95AFF4F80E791E03C
:1056100091838083FE01E95AFF4F80819181019738
:10562000F1F7FE01E95AFF4F91838083DE01A75A0B
:10563000BF4FFE01E75AFF4F80819181019711967C
:105640009C938E93FE01E75AFF4F808191810097D2
:10565000D1F628C08E01075A1F4FFE01E55AFF4FB1
:1056600060817181828193810E94402FDC01CB0196
:10567000F80191838083DE01AB5ABF4FFE01E75AE8
:10568000FF4F8081918111969C938E93FE01EB5A7E
:10569000FF4F808191810197F1F7FE01EB5AFF4F97
:1056A00091838083FE01EB59FF4F8081883208F09F
:1056B0007AC2FE01EA59FF4F8081883208F073C236
:1056C000FE01EC59FF4F8081883208F06CC2FE0168
:1056D000ED59FF4F81E080830E94AE0CFE01EF5A2E
:1056E000FF4F80E090E0AAE7B4E480839183A28337
:1056F000B3838E01035B1F4FFE01EF5AFF4F6081A2
:1057000071818281938126E636E646E655E40E9461
:105710001631DC01CB01F80180839183A283B3832E
:10572000FE01E35BFF4F608171818281938120E004
:1057300030E040E85FE30E941C33882344F4FE011C
:10574000E55BFF4F81E090E09183808364C0FE01C0
:10575000E35BFF4F608171818281938120E03FEFA5
:105760004FE757E40E94BC3218160CF043C0FE010C
:10577000EF5AFF4F608171818281938120E030E098
:1057800040E251E40E941631DC01CB018E01055B41
:105790001F4FBC01CD010E94402FDC01CB01F8015D
:1057A000918380831FC0FE01E75BFF4F80E791E09C
:1057B00091838083FE01E75BFF4F80819181019798
:1057C000F1F7FE01E75BFF4F91838083DE01A55B6C
:1057D000BF4FFE01E55BFF4F8081918101971196DC
:1057E0009C938E93FE01E55BFF4F80819181009732
:1057F000D1F627C08E01055B1F4FFE01E35BFF4F13
:1058000060817181828193810E94402FDC01CB01F4
:10581000F80191838083DE01A95BBF4FFE01E55B48
:10582000FF4F808191818D939C93FE01E95BFF4F37
:10583000808191810197F1F7FE01E95BFF4F918330
:105840008083FE01E759FF4FDE01A959BF4F208138
:1058500031818D919C9111972817390709F094C0D7
:1058600081E061E00E94030985E493E00E94440B1B
:105870000E94AE0CFE01ED5BFF4F80E090E0AAE7D6
:10588000B4E480839183A283B3838E01015C1F4FB4
:10589000FE01ED5BFF4F608171818281938126E67D
:1058A00036E646E655E40E941631DC01CB01F801EC
:1058B00080839183A283B383FE01FF96608171810F
:1058C0008281938120E030E040E85FE30E941C3356
:1058D00088232CF481E090E09EAF8DAF46C0FE019E
:1058E000FF96608171818281938120E03FEF4FE7D5
:1058F00057E40E94BC32181664F5FE01ED5BFF4FC1
:10590000608171818281938120E030E040E251E446
:105910000E941631DC01CB01BC01CD010E94402F59
:10592000DC01CB019EAF8DAF0FC080E791E09CAF53
:105930008BAF8BAD9CAD0197F1F79CAF8BAF8DAD6D
:105940009EAD01979EAF8DAF8DAD9EAD009769F76F
:1059500016C0FE01FF9660817181828193810E9451
:10596000402FDC01CB019EAF8DAF8DAD9EAD9AAFC8
:1059700089AF89AD9AAD0197F1F79AAF89AF8AE502
:1059800090E00E94060E80C081E061E00E94030961
:1059900085E593E00E94440B0E94AE0C80E090E00D
:1059A000AAEFB3E48DAB9EABAFABB8AF6DA97EA948
:1059B0008FA998AD26E636E646E655E40E941631F4
:1059C000DC01CB0189AB9AABABABBCAB69A97AA9C3
:1059D0008BA99CA920E030E040E85FE30E941C33E3
:1059E00088232CF481E090E098AB8FA73FC069A991
:1059F0007AA98BA99CA920E03FEF4FE757E40E94CA
:105A0000BC3218164CF56DA97EA98FA998AD20E07F
:105A100030E040E251E40E941631DC01CB01BC01D0
:105A2000CD010E94402FDC01CB0198AB8FA70FC0A6
:105A300080E791E09EA78DA78DA59EA50197F1F720
:105A40009EA78DA78FA598A9019798AB8FA78FA523
:105A500098A9009769F714C069A97AA98BA99CA98C
:105A60000E94402FDC01CB0198AB8FA78FA598A98E
:105A70009CA78BA78BA59CA50197F1F79CA78BA74B
:105A800082E390E00E94A10DDE01A959BF4FFE0103
:105A9000E959FF4F8081918101968D939C9381E01C
:105AA00061E00E940309FE01E959FF4F2081318125
:105AB00081E061E0A90122E030E00E94210B0E9418
:105AC000AE0C80E090E0AAEFB3E48FA398A7A9A75B
:105AD000BAA76FA178A589A59AA526E636E646E677
